:100000000C9444000C9461000C9461000C94610009
:100010000C940D050C9461000C9461000C9461002B
:100020000C9461000C9461000C94BF030C9461006B
:100030000C9461000C9461000C9461000C946100BC
:100040000C9461000C9461000C9461000C946100AC
:100050000C946100740078007D00820087008C00A1
:100060009100960056035B03600365036A036F0308
:10007000740379037E038C09920998099E09A409E7
:10008000AA09B009B609BC0911241FBECFE5D8E002
:10009000DEBFCDBF11E0A0E6B0E0E8E7F6E102C0C8
:1000A00005900D92AE36B107D9F721E0AEE6B1E08A
:1000B00001C01D92A738B207E1F70E94AA030C9471
:1000C0003A0B0C940000379A3F983E9A86B1887F8D
:1000D00086B90895339890E08830910558F5FC0171
:1000E000E65DFF4F0C94250B87B1807E87B922C057
:1000F00087B1807E816087B91DC087B1807E8260B4
:1001000087B918C087B1807E836087B913C087B173
:10011000807E846087B90EC087B1807E856087B994
:1001200009C087B1807E866087B904C087B1807EB0
:10013000876087B9369A349BFECF349A84B195B1E3
:10014000089520E041E060E480E00E9448010895C5
:1001500010926000089580916000882319F081302A
:10016000E1F008954FEF60E480E00E94B5018091D6
:100170006E0190916F010A96803D27E0920729F069
:1001800090936F0180936E01089510926F01109209
:100190006E0181E080936000089540E060E480E0BB
:1001A0000E94B50108950E94A8000E9402050E94C5
:1001B000CE090E941E0B0E94A3030E94AE06089562
:1001C0000E94A8000E9406050E94D2090E94220BEC
:1001D0000E94A7030E94B2060895809170018823AF
:1001E00019F0813059F008950E943409823071F479
:1001F00081E0809370010E94D30008950E94340929
:10020000823021F4109270010E94E000089566236C
:1002100019F06130A9F00895813049F028F082305A
:1002200049F0833051F008951ABA4BBB089517BABC
:1002300048BB089514BA45BB089511BA42BB08954E
:10024000813051F028F0823059F0833069F0089500
:100250008FEF8ABB4BBB08958FEF87BB48BB0895D8
:100260008FEF84BB45BB08958FEF81BB42BB0895E0
:10027000813041F028F0823039F0833039F0089530
:100280006BBB089568BB089565BB089562BB089574
:10029000442319F04130A9F10895813089F028F004
:1002A0008230C9F0833011F108958AB3462F40950A
:1002B00084238ABB8BB348232623242B2BBB08958E
:1002C00087B3362F3095832387BB88B33823262303
:1002D000232B28BB089584B3962F9095892384BB44
:1002E00085B398232623292B25BB089591B3862F08
:1002F0008095982391BB92B389232623822B82BBBE
:100300000895813089F028F08230C9F0833011F1EE
:1003100008955AB3562B5ABB5BB3862F809558234A
:100320002623252B2BBB089557B3562B57BB58B309
:10033000862F809558232623252B28BB089554B358
:10034000562B54BB55B3862F809558232623252B37
:1003500025BB089551B3562B51BB52B3862F8095C0
:1003600058232623252B22BB0895813071F028F0D5
:10037000823099F08330C9F008958BB3962F909511
:1003800089234623482B4BBB089588B3962F90951D
:1003900089234623482B48BB089585B3962F909513
:1003A00089234623482B45BB089582B3962F909509
:1003B00089234623482B42BB0895813049F028F019
:1003C000823049F0833051F00CC089B38623089500
:1003D00086B38623089583B38623089580B3862346
:1003E000089580E00895CF93C82F482F60EF82E0F2
:1003F0000E94B50140E063E082E00E94B5014FEF4A
:1004000064E082E00E94B50187EC90E00197F1F78B
:1004100000C0000040E064E082E00E94B5018FE887
:1004200091E00197F1F700C000004C2F4295407F0A
:1004300060EF82E00E94B5014FEF64E082E00E942D
:10044000B50187EC90E00197F1F700C0000040E0B3
:1004500064E082E00E94B501CF910895CF93DF93CD
:1004600000D000D0CDB7DEB790E8998390EC9A83A6
:1004700090E99B8390ED9C83FE01E60FF11D918135
:10048000890F0E94F30187EC90E00197F1F700C01B
:1004900000000F900F900F900F90DF91CF91089573
:1004A0000F931F93CF93DF93FC01C081CC2309F4FA
:1004B00045C08C01D0E04C2F60EF82E00E94B50176
:1004C0004FEF61E082E00E94B50140E062E082E02F
:1004D0000E94B5014FEF64E082E00E94B50187EC15
:1004E00090E00197F1F700C0000040E064E082E096
:1004F0000E94B501EFE8F1E03197F1F700C000008C
:100500004C2F4295407F60EF82E00E94B5014FEF93
:1005100064E082E00E94B50187EC90E00197F1F77A
:1005200000C0000040E064E082E00E94B501DF5FAF
:10053000F801ED0FF11DC081C111BDCFDF91CF9149
:100540001F910F91089520E041E060EF82E00E944A
:10055000480120E041E067E082E00E9448012FEF7F
:1005600041E060E880E00E94480140E063E082E012
:100570000E94B50140E064E082E00E94B5018FE98D
:100580009FE00197F1F700C0000083E30E94F301B0
:1005900087EC90E00197F1F700C0000082E30E9431
:1005A000F30187EC90E00197F1F700C0000088E2CA
:1005B0000E94F30187EC90E00197F1F700C0000082
:1005C0008CE00E94F30187EC90E00197F1F700C006
:1005D000000081E00E94F3018FE99FE00197F1F7AD
:1005E00000C0000086E00E94F30187EC90E00197D4
:1005F000F1F700C000000895809173018130B1F1DE
:1006000020F0823009F499C0089560E082E00E94F1
:100610002E028BE890E00E94500261E080E00E9490
:100620002E0287E990E00E9450020E940A05813064
:1006300049F018F0823059F00EC08EE990E00E9427
:10064000500209C089EA90E00E94500204C084EB85
:1006500090E00E9450020E942E09823009F072C080
:100660000E94A80081E08093730108958091710138
:10067000909172010A96909372018093710160E0EB
:1006800082E00E942E028FEB90E00E94500261E017
:1006900080E00E942E020E94CB0990E089309105F3
:1006A00088F5FC01EE5CFF4F0C94250B8BEC90E081
:1006B0000E94500227C08CED90E00E94500222C0A0
:1006C0008DEE90E00E9450021DC08EEF90E00E94DF
:1006D000500218C08FE091E00E94500213C080E2E7
:1006E00091E00E9450020EC081E391E00E9450020E
:1006F00009C082E491E00E94500204C083E591E0C9
:100700000E9450020E942E09823049F41092720118
:10071000109271010E94A8001092730108958091B7
:1007200071019091720180329E4461F410927201C5
:100730001092710110927301089540E060E880E02A
:100740000E94B501089582E080937301089510928C
:10075000730108950E9463000E94EA090E94D5096E
:100760000E94B5060E94F1030E9437090E94A10071
:100770000E944B050E94A3020E94E309FFCF1F9233
:100780000F920FB60F9211242F933F934F935F93C5
:100790006F937F938F939F93AF93BF93EF93FF9349
:1007A0000E94D4060E94ED000E9457090E94FD039A
:1007B0000E94000A0E9469050E94AB000E94FC0290
:1007C000FF91EF91BF91AF919F918F917F916F9129
:1007D0005F914F913F912F910F900FBE0F901F90FF
:1007E000189520E041E060E181E00E94480181E944
:1007F0000E94FD090E94F5090895809162008230EF
:1008000009F4BEC030F4882359F0813009F45CC08B
:100810000895833009F4E8C0843009F4E8C00895ED
:10082000809175010E94FD090E94F5098091610087
:100830008937E8F090917401965F903519F09093A4
:10084000740137C01092740181508093610027E3D6
:10085000829FC0011124082E892F000C881F990B3C
:10086000000C881F991F81508093750122C0883722
:10087000E8F490917401965F903519F090937401AB
:1008800018C0109274018F5F8093610027E3829FEC
:10089000C0011124082E892F000C881F990B000C11
:1008A000881F991F81508093750103C087E780934B
:1008B00075010E942809823009F0A3C00E94A80097
:1008C00081E0809362000895809175010E94FD0986
:1008D0000E94F509809161008B35E8F090917401D8
:1008E000965F903519F09093740137C0109274019F
:1008F00081508093610027E3829FC0011124082E5C
:10090000892F000C881F990B000C881F991F81509C
:100910008093750122C08A35E8F490917401965F46
:10092000903519F09093740118C0109274018F5F84
:100930008093610027E3829FC0011124082E892F34
:10094000000C881F990B000C881F991F8150809301
:10095000750103C08CE4809375010E9428098230E0
:1009600029F40E94A80082E0809362000E942B0973
:10097000823009F046C00E94A800109262000895DB
:10098000809175010E94FD090E94F5098091610026
:100990008B30E8F090917401965F903519F0909348
:1009A000740118C01092740181508093610027E394
:1009B000829FC0011124082E892F000C881F990BDB
:1009C000000C881F991F81508093750103C088E037
:1009D000809375010E942B09823099F40E94A8002F
:1009E00081E08093620008950E94F90908958AEADF
:1009F000809361001092740181E9809375011092D7
:100A00006200089583E080936200089584E08093FB
:100A1000620008958091620008951F920F920FB6B0
:100A20000F9211242F933F934F935F936F937F9374
:100A30008F939F93AF93BF93EF93FF938091760132
:100A4000882319F0813069F015C04FEF60E181E033
:100A50000E94B50181E00E94FD0981E0809376014A
:100A600009C040E060E181E00E94B501109276018A
:100A70000E94F909FF91EF91BF91AF919F918F91E2
:100A80007F916F915F914F913F912F910F900FBE8A
:100A90000F901F90189540E061E083E00E940701ED
:100AA00021E041E068E082E00E94480120E041E06E
:100AB00060E881E00E94480120E041E060E481E0DC
:100AC0000E94480120E041E060E281E00E9448018C
:100AD00008950E941B0B811103C010927C0106C077
:100AE0000E941B0B9CE3981B90937C0180917D01DD
:100AF000813009F45BC020F0823009F40EC1089502
:100B00008091790190917A010A9690937A0180936D
:100B1000790180917801882319F08130E9F036C09D
:100B200040E068E082E00E94B50140E860E881E0D2
:100B30000E94B50140E060E481E00E94B50140E020
:100B400060E281E00E94B50160E383E00E94380129
:100B500081E0809378011AC040E068E082E00E9462
:100B6000B50140E060E881E00E94B50140E460E446
:100B700081E00E94B50140E060E281E00E94B501A1
:100B800066E783E00E943801109278018091790134
:100B900090917A018031974209F0D3C010927A0186
:100BA0001092790181E080937D0108958091770111
:100BB0008130B1F138F0823009F45AC0833009F441
:100BC00085C0089548E068E082E00E94B50140E0F9
:100BD00060E881E00E94B50140E060E481E00E94AD
:100BE000B50140E060E281E00E94B501E0917C0146
:100BF0008DECE89F812D1124869586958695880F2A
:100C0000982F990F990F890FE81BF0E0EC59FE4FD0
:100C1000608183E00E94380181E08093770108952C
:100C200040E068E082E00E94B50140E860E881E0D1
:100C30000E94B50140E060E481E00E94B50140E01F
:100C400060E281E00E94B50180917C01EDEC8E9F15
:100C5000E12D1124E695E695E695F0E0EC59FE4F7E
:100C6000608183E00E94380182E0809377010895DB
:100C700040E068E082E00E94B50140E060E881E089
:100C80000E94B50140E460E481E00E94B50140E0CB
:100C900060E281E00E94B501E0917B018DECE89F6C
:100CA000812D1124869586958695880F982F990F0A
:100CB000990F890FE81BF0E0EC59FE4F608183E04B
:100CC0000E94380183E080937701089540E068E056
:100CD00082E00E94B50140E060E881E00E94B50139
:100CE00040E060E481E00E94B50140E260E281E022
:100CF0000E94B50180917B01EDEC8E9FE12D1124C6
:100D0000E695E695E695F0E0EC59FE4F608183E0CC
:100D10000E94380110927701089540E068E082E077
:100D20000E94B50140E060E881E00E94B50140E02A
:100D300060E481E00E94B50140E060E281E00E9451
:100D4000B501089580937C01089580937B010895F7
:100D500080917B01815080937B01089582E0809394
:100D60007D01089510927D0108952FEF40E062E02B
:100D700080E00E9448012FEF40E064E080E00E94A4
:100D800048012FEF40E068E080E00E9448012FEF2B
:100D900040E060E180E00E9448012FEF40E060E227
:100DA00080E00E9448010895CF93DF93C1E8D0E02E
:100DB000898188838A8189838B818A838C818B83D3
:100DC00062E080E00E94DD0186958C8398819130FD
:100DD000B1F490918200913049F590918300913067
:100DE00029F590918400913009F58130F9F48093D0
:100DF000800080917F00813009F0F8C120C09111FE
:100E000015C090918200911111C0909183009111B1
:100E10000DC090918400911109C0811107C01092FA
:100E2000800080917F00813071F416C080917F0036
:100E3000813009F0DEC180918000813069F481E069
:100E400080938A0016C08111BBC1809180008111FE
:100E50000BC010928A000DC080918000811109C0E2
:100E600082E080938A0005C0813019F483E080938A
:100E70008A008091800080937F00CAE7D0E089815A
:100E800088838A8189838B818A838C818B8364E0C8
:100E900080E00E94DD01869586958C839881913053
:100EA000B1F490917B00913049F590917C009130A4
:100EB00029F590917D00913009F58130F9F4809306
:100EC000790080917800813009F09AC120C0911199
:100ED00015C090917B00911111C090917C009111EF
:100EE0000DC090917D00911109C0811107C0109231
:100EF000790080917800813071F416C0809178007B
:100F0000813009F080C180917900813069F481E0FD
:100F10008093890016C0811157C180917900811199
:100F20000BC0109289000DC080917900811109C019
:100F300082E08093890005C0813019F483E08093BA
:100F400089008091790080937800C3E7D0E089819F
:100F500088838A8189838B818A838C818B8368E0F3
:100F600080E00E94DD018695869586958C83988128
:100F70009130B1F490917400913049F590917500E1
:100F8000913029F590917600913009F58130F9F48E
:100F90008093720080917100813009F03BC120C0C4
:100FA000911115C090917400911111C0909175002C
:100FB00091110DC090917600911109C0811107C067
:100FC0001092720080917100813071F416C080918E
:100FD0007100813009F021C180917200813069F483
:100FE00081E08093880016C08111F2C08091720068
:100FF00081110BC0109288000DC080917200811188
:1010000009C082E08093880005C0813019F483E034
:10101000809388008091720080937100CCE6D0E0CC
:10102000898188838A8189838B818A838C818B8360
:1010300060E180E00E94DD0182958F708C83988151
:101040009130B1F490916D00913049F590916E001E
:10105000913029F590916F00913009F58130F9F4C4
:1010600080936B0080916A00813009F0DDC020C060
:10107000911115C090916D00911111C090916E0069
:1010800091110DC090916F00911109C0811107C09D
:1010900010926B0080916A00813071F416C08091CB
:1010A0006A00813009F0C3C080916B00813069F41F
:1010B00081E08093870016C081118EC080916B0003
:1010C00081110BC0109287000DC080916B008111BF
:1010D00009C082E08093870005C0813019F483E065
:1010E0008093870080916B0080936A00C5E6D0E012
:1010F000898188838A8189838B818A838C818B8390
:1011000060E280E00E94DD018295869587708C8385
:1011100098819130B1F490916600913049F59091A9
:101120006700913029F590916800913009F5813080
:10113000F9F48093640080916300813009F082C0EB
:1011400020C0911115C090916600911111C090912D
:10115000670091110DC090916800911109C0811133
:1011600007C01092640080916300813071F416C052
:1011700080916300813009F05EC08091640081300D
:1011800069F481E08093860016C0811129C08091A6
:10119000640081110BC0109286000DC08091640024
:1011A000811109C082E08093860005C0813019F466
:1011B00083E080938600809164008093630045C043
:1011C000813009F056CE48CE813009F0BACEACCE8F
:1011D000813009F01FCF11CF813009F083CF75CF57
:1011E000813049F7DBCF809180003ECE8823D9F350
:1011F000E7CF882309F429CE3CCE809179009CCE9C
:101200008823D9F3E1CF882309F487CE9ACE809141
:101210007200FBCE8823D9F3DBCF882309F4E6CE16
:10122000F9CE80916B0059CF8823D9F3D5CF88238D
:1012300009F444CF57CF882309F4A9CFBCCF8091BC
:101240006400B4CF8823D9F3CBCFDF91CF91089539
:1012500080918A0008958091890008958091880086
:10126000089580918700089580918600089520E078
:1012700041E06FE081E00E94480180E00E946A0046
:101280009C01AFE7B8E40E942B0B96958795929549
:1012900082958F7089279F70892780937E01209186
:1012A0007F01222319F0815080937E01089580915F
:1012B0008001882319F0813001F122C080E00E9472
:1012C0006A009C01AFE7B8E40E942B0B96958795C6
:1012D000929582958F7089279F70892780937F01CF
:1012E000882309F453C0815080937F0190917E013F
:1012F000891731F00E94A80003C010927F010CC032
:10130000E0917F018E2F90E089309105D0F5FC01AE
:10131000E55CFF4F0C94250B40E06FE081E00E94FC
:10132000B5012FC041E06FE081E00E94B50129C006
:1013300042E06FE081E00E94B50123C043E06FE02E
:1013400081E00E94B5011DC044E06FE081E00E9491
:10135000B50117C045E06FE081E00E94B50111C002
:1013600046E06FE081E00E94B5010BC047E06FE00E
:1013700081E00E94B50105C048E06FE081E00E9475
:10138000B50180917F0180937E01089580917E0157
:101390008111B0CFC1CF80917F01089581E080930A
:1013A0008001089510928001089512BE8CE98CBFCF
:1013B00083B7886083BF83B78F7B83BF89B7826021
:1013C00089BF7894089583B7856083BF83B78D7F85
:1013D00083BF089585B5886085BD85B58F7B85BD44
:1013E00089B7806889BF7894089585B5876085BD81
:1013F000089585B5887F85BD089583BD14BC089583
:10140000CF930E943109C82F80918601823009F460
:101410006AC028F4882351F08130B9F00AC18330C2
:1014200009F4AFC0843009F4F8C003C1C23009F038
:1014300000C10E94A80081E08093860180E00E94A4
:10144000A20681E00E94A506F4C0809184019091DB
:1014500085010A96883E23E0920729F09093850142
:101460008093840122C010928501109284018091A2
:1014700083018F5F8C3319F08093830116C0109223
:101480008301809182018F5F80938201813011F40A
:101490000E94A806809182018C3339F41092820157
:1014A000809181018F5F80938101809181018130E2
:1014B00029F4109281010E94D300BBC0C23009F010
:1014C000B8C00E94A80082E0809386011092830138
:1014D000109282011092810180E00E94A20682E0B7
:1014E0000E94A506A6C080918401909185010A966C
:1014F000883E23E0920729F0909385018093840130
:1015000022C01092850110928401809183018F5F27
:101510008C3319F08093830116C01092830180915F
:1015200082018F5F80938201813011F40E94A806AE
:10153000809182018C3339F4109282018091810173
:101540008F5F8093810180918101823029F4109214
:1015500081010E94D3006DC0C23009F06AC00E94B0
:10156000A80083E08093860110928301109282018B
:101570001092810180E00E94A20684E00E94A506EC
:1015800058C080918401909185010A96883E23E09D
:10159000920729F0909385018093840122C01092D4
:1015A000850110928401809183018F5F8C3319F043
:1015B0008093830116C010928301809182018F5F16
:1015C00080938201813011F40E94A80680918201EB
:1015D0008C3339F410928201809181018F5F809366
:1015E000810180918101843029F4109281010E944F
:1015F000D3001FC0C230E9F410928601109283011B
:1016000010928201109281010E94A80080E00E9445
:10161000A20680E00E94A5060CC0109283011092E1
:1016200082011092810180E00E94A20680E00E9467
:10163000A506CF91089580918201089584E080935A
:1016400086010895109286010895EE0FFF1F059000
:10165000F491E02D0994A29FB001B39FC001A39F14
:10166000700D811D1124911DB29F700D811D1124DB
:08167000911D0895F894FFCFCD
:1016780001AA0401010101010101010101010101A6
:101688000101010101010101010101010101010142
:1016980001010101010101010101014D6F746F7226
:1016A8002053706565640053706565643D004D495D
:1016B8004E20202020202020004D4944202020209A
:1016C800202020004D415820202020202020005399
:1016D80077696E672056616C756500202020202090
:1016E8002020202020202020202020002020202012
:1016F8002020202A2A2020202020202000202020EE
:101708002020202A2A2A2A202020202020002020C9
:101718002020202A2A2A2A2A2A20202020200020A5
:101728002020202A2A2A2A2A2A2A2A202020200081
:101738002020202A2A2A2A2A2A2A2A2A2A2020203D
:101748000020202A2A2A2A2A2A2A2A2A2A2A2A2039
:101758002000202A2A2A2A2A2A2A2A2A2A2A2A2A1F
:101768002A20002A2A2A2A2A2A2A2A2A2A2A2A2A05
:0E1778002A2A2A003F065B4F666D7D077F6FB1
:00000001FF
